{
  "_format": "hh-sol-artifact-1",
  "contractName": "Vote",
  "sourceName": "contracts/Vote.sol",
  "abi": [
    {
      "inputs": [],
      "stateMutability": "nonpayable",
      "type": "constructor"
    },
    {
      "anonymous": false,
      "inputs": [
        {
          "indexed": true,
          "internalType": "address",
          "name": "previousOwner",
          "type": "address"
        },
        {
          "indexed": true,
          "internalType": "address",
          "name": "newOwner",
          "type": "address"
        }
      ],
      "name": "OwnershipTransferred",
      "type": "event"
    },
    {
      "inputs": [
        {
          "internalType": "string",
          "name": "_name",
          "type": "string"
        },
        {
          "internalType": "string",
          "name": "_uri",
          "type": "string"
        },
        {
          "components": [
            {
              "internalType": "string",
              "name": "name",
              "type": "string"
            },
            {
              "internalType": "string",
              "name": "description",
              "type": "string"
            },
            {
              "internalType": "string",
              "name": "uri",
              "type": "string"
            }
          ],
          "internalType": "struct Vote.UserOption[]",
          "name": "_options",
          "type": "tuple[]"
        }
      ],
      "name": "createProposal",
      "outputs": [],
      "stateMutability": "nonpayable",
      "type": "function"
    },
    {
      "inputs": [
        {
          "internalType": "uint256[]",
          "name": "_optionIds",
          "type": "uint256[]"
        }
      ],
      "name": "getOptions",
      "outputs": [
        {
          "components": [
            {
              "internalType": "uint256",
              "name": "id",
              "type": "uint256"
            },
            {
              "internalType": "uint256",
              "name": "proposalId",
              "type": "uint256"
            },
            {
              "internalType": "uint256",
              "name": "votes",
              "type": "uint256"
            },
            {
              "internalType": "string",
              "name": "name",
              "type": "string"
            },
            {
              "internalType": "string",
              "name": "description",
              "type": "string"
            },
            {
              "internalType": "string",
              "name": "uri",
              "type": "string"
            }
          ],
          "internalType": "struct Vote.Option[]",
          "name": "",
          "type": "tuple[]"
        }
      ],
      "stateMutability": "view",
      "type": "function"
    },
    {
      "inputs": [
        {
          "internalType": "uint256",
          "name": "_proposalId",
          "type": "uint256"
        }
      ],
      "name": "getProposal",
      "outputs": [
        {
          "components": [
            {
              "internalType": "address",
              "name": "owner",
              "type": "address"
            },
            {
              "internalType": "uint256",
              "name": "id",
              "type": "uint256"
            },
            {
              "internalType": "string",
              "name": "name",
              "type": "string"
            },
            {
              "internalType": "string",
              "name": "uri",
              "type": "string"
            },
            {
              "internalType": "uint256[]",
              "name": "optionIds",
              "type": "uint256[]"
            },
            {
              "internalType": "uint256",
              "name": "numVoters",
              "type": "uint256"
            }
          ],
          "internalType": "struct Vote.UserProposal",
          "name": "",
          "type": "tuple"
        }
      ],
      "stateMutability": "view",
      "type": "function"
    },
    {
      "inputs": [],
      "name": "numOptions",
      "outputs": [
        {
          "internalType": "uint256",
          "name": "",
          "type": "uint256"
        }
      ],
      "stateMutability": "view",
      "type": "function"
    },
    {
      "inputs": [],
      "name": "numProposals",
      "outputs": [
        {
          "internalType": "uint256",
          "name": "",
          "type": "uint256"
        }
      ],
      "stateMutability": "view",
      "type": "function"
    },
    {
      "inputs": [
        {
          "internalType": "uint256",
          "name": "",
          "type": "uint256"
        }
      ],
      "name": "options",
      "outputs": [
        {
          "internalType": "uint256",
          "name": "id",
          "type": "uint256"
        },
        {
          "internalType": "uint256",
          "name": "proposalId",
          "type": "uint256"
        },
        {
          "internalType": "uint256",
          "name": "votes",
          "type": "uint256"
        },
        {
          "internalType": "string",
          "name": "name",
          "type": "string"
        },
        {
          "internalType": "string",
          "name": "description",
          "type": "string"
        },
        {
          "internalType": "string",
          "name": "uri",
          "type": "string"
        }
      ],
      "stateMutability": "view",
      "type": "function"
    },
    {
      "inputs": [],
      "name": "owner",
      "outputs": [
        {
          "internalType": "address",
          "name": "",
          "type": "address"
        }
      ],
      "stateMutability": "view",
      "type": "function"
    },
    {
      "inputs": [
        {
          "internalType": "uint256",
          "name": "",
          "type": "uint256"
        }
      ],
      "name": "proposals",
      "outputs": [
        {
          "internalType": "address",
          "name": "owner",
          "type": "address"
        },
        {
          "internalType": "uint256",
          "name": "id",
          "type": "uint256"
        },
        {
          "internalType": "string",
          "name": "name",
          "type": "string"
        },
        {
          "internalType": "string",
          "name": "uri",
          "type": "string"
        },
        {
          "internalType": "uint256",
          "name": "numVoters",
          "type": "uint256"
        }
      ],
      "stateMutability": "view",
      "type": "function"
    },
    {
      "inputs": [],
      "name": "renounceOwnership",
      "outputs": [],
      "stateMutability": "nonpayable",
      "type": "function"
    },
    {
      "inputs": [],
      "name": "terminate",
      "outputs": [],
      "stateMutability": "nonpayable",
      "type": "function"
    },
    {
      "inputs": [
        {
          "internalType": "address",
          "name": "newOwner",
          "type": "address"
        }
      ],
      "name": "transferOwnership",
      "outputs": [],
      "stateMutability": "nonpayable",
      "type": "function"
    },
    {
      "inputs": [
        {
          "internalType": "uint256",
          "name": "_proposalId",
          "type": "uint256"
        },
        {
          "internalType": "uint256",
          "name": "_optionId",
          "type": "uint256"
        }
      ],
      "name": "vote",
      "outputs": [],
      "stateMutability": "nonpayable",
      "type": "function"
    }
  ],
  "bytecode": "0x608060405234801561001057600080fd5b5061002d61002261003a60201b60201c565b61004260201b60201c565b6001600281905550610106565b600033905090565b60008060009054906101000a900473ffffffffffffffffffffffffffffffffffffffff169050816000806101000a81548173ffffffffffffffffffffffffffffffffffffffff021916908373ffffffffffffffffffffffffffffffffffffffff1602179055508173ffffffffffffffffffffffffffffffffffffffff168173ffffffffffffffffffffffffffffffffffffffff167f8be0079c531659141344cd1fd0a4f28419497f9722a3daafe3b4186f6b6457e060405160405180910390a35050565b611f8e806101156000396000f3fe608060405234801561001057600080fd5b50600436106100b45760003560e01c80638da5cb5b116100715780638da5cb5b14610172578063b384abef14610190578063c7f758a8146101ac578063e408e017146101dc578063f2fde38b1461020c578063f3a8e6ce14610228576100b4565b8063013cf08b146100b95780630c08bf88146100ed578063400e3949146100f7578063409e2205146101155780634b97aed91461014a578063715018a614610168575b600080fd5b6100d360048036038101906100ce919061159f565b610244565b6040516100e4959493929190611986565b60405180910390f35b6100f56103aa565b005b6100ff610446565b60405161010c9190611aab565b60405180910390f35b61012f600480360381019061012a919061159f565b61044c565b60405161014196959493929190611ac6565b60405180910390f35b610152610620565b60405161015f9190611aab565b60405180910390f35b610170610626565b005b61017a6106ae565b604051610187919061196b565b60405180910390f35b6101aa60048036038101906101a591906115c8565b6106d7565b005b6101c660048036038101906101c1919061159f565b6108bc565b6040516101d39190611a89565b60405180910390f35b6101f660048036038101906101f191906114ba565b610abc565b60405161020391906119e7565b60405180910390f35b61022660048036038101906102219190611491565b610ddc565b005b610242600480360381019061023d91906114fb565b610ed4565b005b60036020528060005260406000206000915090508060000160009054906101000a900473ffffffffffffffffffffffffffffffffffffffff169080600101549080600201805461029390611d16565b80601f01602080910402602001604051908101604052809291908181526020018280546102bf90611d16565b801561030c5780601f106102e15761010080835404028352916020019161030c565b820191906000526020600020905b8154815290600101906020018083116102ef57829003601f168201915b50505050509080600301805461032190611d16565b80601f016020809104026020016040519081016040528092919081815260200182805461034d90611d16565b801561039a5780601f1061036f5761010080835404028352916020019161039a565b820191906000526020600020905b81548152906001019060200180831161037d57829003601f168201915b5050505050908060050154905085565b6103b261114c565b73ffffffffffffffffffffffffffffffffffffffff166103d06106ae565b73ffffffffffffffffffffffffffffffffffffffff1614610426576040517f08c379a000000000000000000000000000000000000000000000000000000000815260040161041d90611a69565b60405180910390fd5b61042e6106ae565b73ffffffffffffffffffffffffffffffffffffffff16ff5b60015481565b600460205280600052604060002060009150905080600001549080600101549080600201549080600301805461048190611d16565b80601f01602080910402602001604051908101604052809291908181526020018280546104ad90611d16565b80156104fa5780601f106104cf576101008083540402835291602001916104fa565b820191906000526020600020905b8154815290600101906020018083116104dd57829003601f168201915b50505050509080600401805461050f90611d16565b80601f016020809104026020016040519081016040528092919081815260200182805461053b90611d16565b80156105885780601f1061055d57610100808354040283529160200191610588565b820191906000526020600020905b81548152906001019060200180831161056b57829003601f168201915b50505050509080600501805461059d90611d16565b80601f01602080910402602001604051908101604052809291908181526020018280546105c990611d16565b80156106165780601f106105eb57610100808354040283529160200191610616565b820191906000526020600020905b8154815290600101906020018083116105f957829003601f168201915b5050505050905086565b60025481565b61062e61114c565b73ffffffffffffffffffffffffffffffffffffffff1661064c6106ae565b73ffffffffffffffffffffffffffffffffffffffff16146106a2576040517f08c379a000000000000000000000000000000000000000000000000000000000815260040161069990611a69565b60405180910390fd5b6106ac6000611154565b565b60008060009054906101000a900473ffffffffffffffffffffffffffffffffffffffff16905090565b6001610718576040517f08c379a000000000000000000000000000000000000000000000000000000000815260040161070f90611a49565b60405180910390fd5b816000600360008381526020019081526020016000209050600a8160060160003373ffffffffffffffffffffffffffffffffffffffff1673ffffffffffffffffffffffffffffffffffffffff16815260200190815260200160002054106107b4576040517f08c379a00000000000000000000000000000000000000000000000000000000081526004016107ab90611a09565b60405180910390fd5b600060046000858152602001908152602001600020905060006003600087815260200190815260200160002090508160020160008154809291906107f790611d79565b9190505550848160060160003373ffffffffffffffffffffffffffffffffffffffff1673ffffffffffffffffffffffffffffffffffffffff16815260200190815260200160002081905550338160070160008360050154815260200190815260200160002060006101000a81548173ffffffffffffffffffffffffffffffffffffffff021916908373ffffffffffffffffffffffffffffffffffffffff1602179055508060050160008154809291906108af90611d79565b9190505550505050505050565b6108c4611218565b60006003600084815260200190815260200160002090506040518060c001604052808260000160009054906101000a900473ffffffffffffffffffffffffffffffffffffffff1673ffffffffffffffffffffffffffffffffffffffff1681526020018260010154815260200182600201805461093f90611d16565b80601f016020809104026020016040519081016040528092919081815260200182805461096b90611d16565b80156109b85780601f1061098d576101008083540402835291602001916109b8565b820191906000526020600020905b81548152906001019060200180831161099b57829003601f168201915b505050505081526020018260030180546109d190611d16565b80601f01602080910402602001604051908101604052809291908181526020018280546109fd90611d16565b8015610a4a5780601f10610a1f57610100808354040283529160200191610a4a565b820191906000526020600020905b815481529060010190602001808311610a2d57829003601f168201915b5050505050815260200182600401805480602002602001604051908101604052809291908181526020018280548015610aa257602002820191906000526020600020905b815481526020019060010190808311610a8e575b505050505081526020018260050154815250915050919050565b60606000825167ffffffffffffffff811115610b01577f4e487b7100000000000000000000000000000000000000000000000000000000600052604160045260246000fd5b604051908082528060200260200182016040528015610b3a57816020015b610b27611264565b815260200190600190039081610b1f5790505b50905060005b8351811015610dd25760046000858381518110610b86577f4e487b7100000000000000000000000000000000000000000000000000000000600052603260045260246000fd5b602002602001015181526020019081526020016000206040518060c0016040529081600082015481526020016001820154815260200160028201548152602001600382018054610bd590611d16565b80601f0160208091040260200160405190810160405280929190818152602001828054610c0190611d16565b8015610c4e5780601f10610c2357610100808354040283529160200191610c4e565b820191906000526020600020905b815481529060010190602001808311610c3157829003601f168201915b50505050508152602001600482018054610c6790611d16565b80601f0160208091040260200160405190810160405280929190818152602001828054610c9390611d16565b8015610ce05780601f10610cb557610100808354040283529160200191610ce0565b820191906000526020600020905b815481529060010190602001808311610cc357829003601f168201915b50505050508152602001600582018054610cf990611d16565b80601f0160208091040260200160405190810160405280929190818152602001828054610d2590611d16565b8015610d725780601f10610d4757610100808354040283529160200191610d72565b820191906000526020600020905b815481529060010190602001808311610d5557829003601f168201915b505050505081525050828281518110610db4577f4e487b7100000000000000000000000000000000000000000000000000000000600052603260045260246000fd5b60200260200101819052508080610dca90611d79565b915050610b40565b5080915050919050565b610de461114c565b73ffffffffffffffffffffffffffffffffffffffff16610e026106ae565b73ffffffffffffffffffffffffffffffffffffffff1614610e58576040517f08c379a0000000000000000000000000000000000000000000000000000000008152600401610e4f90611a69565b60405180910390fd5b600073ffffffffffffffffffffffffffffffffffffffff168173ffffffffffffffffffffffffffffffffffffffff161415610ec8576040517f08c379a0000000000000000000000000000000000000000000000000000000008152600401610ebf90611a29565b60405180910390fd5b610ed181611154565b50565b610edc61114c565b73ffffffffffffffffffffffffffffffffffffffff16610efa6106ae565b73ffffffffffffffffffffffffffffffffffffffff1614610f50576040517f08c379a0000000000000000000000000000000000000000000000000000000008152600401610f4790611a69565b60405180910390fd5b60006003600060015481526020019081526020016000209050338160000160006101000a81548173ffffffffffffffffffffffffffffffffffffffff021916908373ffffffffffffffffffffffffffffffffffffffff16021790555060015481600101819055508686826002019190610fca92919061129a565b508484826003019190610fde92919061129a565b5060005b8383905081101561112a5736848483818110611027577f4e487b7100000000000000000000000000000000000000000000000000000000600052603260045260246000fd5b90506020028101906110399190611b93565b9050600060046000600254815260200190815260200160002090506002548160000181905550600154816001018190555081806000019061107a9190611b3c565b82600301919061108b92919061129a565b5081806020019061109c9190611b3c565b8260040191906110ad92919061129a565b508180604001906110be9190611b3c565b8260050191906110cf92919061129a565b508360040160025490806001815401808255809150506001900390600052602060002001600090919091909150556002600081548092919061111090611d79565b91905055505050808061112290611d79565b915050610fe2565b506001600081548092919061113e90611d79565b919050555050505050505050565b600033905090565b60008060009054906101000a900473ffffffffffffffffffffffffffffffffffffffff169050816000806101000a81548173ffffffffffffffffffffffffffffffffffffffff021916908373ffffffffffffffffffffffffffffffffffffffff1602179055508173ffffffffffffffffffffffffffffffffffffffff168173ffffffffffffffffffffffffffffffffffffffff167f8be0079c531659141344cd1fd0a4f28419497f9722a3daafe3b4186f6b6457e060405160405180910390a35050565b6040518060c00160405280600073ffffffffffffffffffffffffffffffffffffffff16815260200160008152602001606081526020016060815260200160608152602001600081525090565b6040518060c001604052806000815260200160008152602001600081526020016060815260200160608152602001606081525090565b8280546112a690611d16565b90600052602060002090601f0160209004810192826112c8576000855561130f565b82601f106112e157803560ff191683800117855561130f565b8280016001018555821561130f579182015b8281111561130e5782358255916020019190600101906112f3565b5b50905061131c9190611320565b5090565b5b80821115611339576000816000905550600101611321565b5090565b600061135061134b84611bdc565b611bb7565b9050808382526020820190508285602086028201111561136f57600080fd5b60005b8581101561139f5781611385888261147c565b845260208401935060208301925050600181019050611372565b5050509392505050565b6000813590506113b881611f2a565b92915050565b60008083601f8401126113d057600080fd5b8235905067ffffffffffffffff8111156113e957600080fd5b60208301915083602082028301111561140157600080fd5b9250929050565b600082601f83011261141957600080fd5b813561142984826020860161133d565b91505092915050565b60008083601f84011261144457600080fd5b8235905067ffffffffffffffff81111561145d57600080fd5b60208301915083600182028301111561147557600080fd5b9250929050565b60008135905061148b81611f41565b92915050565b6000602082840312156114a357600080fd5b60006114b1848285016113a9565b91505092915050565b6000602082840312156114cc57600080fd5b600082013567ffffffffffffffff8111156114e657600080fd5b6114f284828501611408565b91505092915050565b6000806000806000806060878903121561151457600080fd5b600087013567ffffffffffffffff81111561152e57600080fd5b61153a89828a01611432565b9650965050602087013567ffffffffffffffff81111561155957600080fd5b61156589828a01611432565b9450945050604087013567ffffffffffffffff81111561158457600080fd5b61159089828a016113be565b92509250509295509295509295565b6000602082840312156115b157600080fd5b60006115bf8482850161147c565b91505092915050565b600080604083850312156115db57600080fd5b60006115e98582860161147c565b92505060206115fa8582860161147c565b9150509250929050565b6000611610838361181f565b905092915050565b6000611624838361194d565b60208301905092915050565b61163981611ca7565b82525050565b61164881611ca7565b82525050565b600061165982611c28565b6116638185611c63565b93508360208202850161167585611c08565b8060005b858110156116b157848403895281516116928582611604565b945061169d83611c49565b925060208a01995050600181019050611679565b50829750879550505050505092915050565b60006116ce82611c33565b6116d88185611c74565b93506116e383611c18565b8060005b838110156117145781516116fb8882611618565b975061170683611c56565b9250506001810190506116e7565b5085935050505092915050565b600061172c82611c3e565b6117368185611c85565b9350611746818560208601611ce3565b61174f81611e4f565b840191505092915050565b600061176582611c3e565b61176f8185611c96565b935061177f818560208601611ce3565b61178881611e4f565b840191505092915050565b60006117a0600c83611c96565b91506117ab82611e60565b602082019050919050565b60006117c3602683611c96565b91506117ce82611e89565b604082019050919050565b60006117e6600f83611c96565b91506117f182611ed8565b602082019050919050565b6000611809602083611c96565b915061181482611f01565b602082019050919050565b600060c083016000830151611837600086018261194d565b50602083015161184a602086018261194d565b50604083015161185d604086018261194d565b50606083015184820360608601526118758282611721565b9150506080830151848203608086015261188f8282611721565b91505060a083015184820360a08601526118a98282611721565b9150508091505092915050565b600060c0830160008301516118ce6000860182611630565b5060208301516118e1602086018261194d565b50604083015184820360408601526118f98282611721565b915050606083015184820360608601526119138282611721565b9150506080830151848203608086015261192d82826116c3565b91505060a083015161194260a086018261194d565b508091505092915050565b61195681611cd9565b82525050565b61196581611cd9565b82525050565b6000602082019050611980600083018461163f565b92915050565b600060a08201905061199b600083018861163f565b6119a8602083018761195c565b81810360408301526119ba818661175a565b905081810360608301526119ce818561175a565b90506119dd608083018461195c565b9695505050505050565b60006020820190508181036000830152611a01818461164e565b905092915050565b60006020820190508181036000830152611a2281611793565b9050919050565b60006020820190508181036000830152611a42816117b6565b9050919050565b60006020820190508181036000830152611a62816117d9565b9050919050565b60006020820190508181036000830152611a82816117fc565b9050919050565b60006020820190508181036000830152611aa381846118b6565b905092915050565b6000602082019050611ac0600083018461195c565b92915050565b600060c082019050611adb600083018961195c565b611ae8602083018861195c565b611af5604083018761195c565b8181036060830152611b07818661175a565b90508181036080830152611b1b818561175a565b905081810360a0830152611b2f818461175a565b9050979650505050505050565b60008083356001602003843603038112611b5557600080fd5b80840192508235915067ffffffffffffffff821115611b7357600080fd5b602083019250600182023603831315611b8b57600080fd5b509250929050565b600082356001606003833603038112611bab57600080fd5b80830191505092915050565b6000611bc1611bd2565b9050611bcd8282611d48565b919050565b6000604051905090565b600067ffffffffffffffff821115611bf757611bf6611e20565b5b602082029050602081019050919050565b6000819050602082019050919050565b6000819050602082019050919050565b600081519050919050565b600081519050919050565b600081519050919050565b6000602082019050919050565b6000602082019050919050565b600082825260208201905092915050565b600082825260208201905092915050565b600082825260208201905092915050565b600082825260208201905092915050565b6000611cb282611cb9565b9050919050565b600073ffffffffffffffffffffffffffffffffffffffff82169050919050565b6000819050919050565b60005b83811015611d01578082015181840152602081019050611ce6565b83811115611d10576000848401525b50505050565b60006002820490506001821680611d2e57607f821691505b60208210811415611d4257611d41611df1565b5b50919050565b611d5182611e4f565b810181811067ffffffffffffffff82111715611d7057611d6f611e20565b5b80604052505050565b6000611d8482611cd9565b91507fffffffffffffffffffffffffffffffffffffffffffffffffffffffffffffffff821415611db757611db6611dc2565b5b600182019050919050565b7f4e487b7100000000000000000000000000000000000000000000000000000000600052601160045260246000fd5b7f4e487b7100000000000000000000000000000000000000000000000000000000600052602260045260246000fd5b7f4e487b7100000000000000000000000000000000000000000000000000000000600052604160045260246000fd5b6000601f19601f8301169050919050565b7f6d617820313020766f7465730000000000000000000000000000000000000000600082015250565b7f4f776e61626c653a206e6577206f776e657220697320746865207a65726f206160008201527f6464726573730000000000000000000000000000000000000000000000000000602082015250565b7f4e6f742077686974656c69737465640000000000000000000000000000000000600082015250565b7f4f776e61626c653a2063616c6c6572206973206e6f7420746865206f776e6572600082015250565b611f3381611ca7565b8114611f3e57600080fd5b50565b611f4a81611cd9565b8114611f5557600080fd5b5056fea264697066735822122002b149b0dbce902079ea42567d26e01c3ca4e420edc44630448bc7bebab41cd264736f6c63430008040033",
  "linkReferences": {},
  "deployedLinkReferences": {}
}